:020000040800F2
:1000000038120020C1010008115A0008935200085C
:100010000D5A0008970E0008DD720008000000006D
:100020000000000000000000000000001D66000845
:100030001710000800000000255A00089566000807
:10004000DB010008DB010008DB010008DB01000820
:10005000DB010008DB010008DB010008DB01000810
:10006000DB010008DB010008DB010008DB01000800
:10007000DB010008DB010008DB010008DB010008F0
:10008000DD0E0008ED0E0008DB010008AD0E0008D3
:100090009D0E0008DB010008DB010008DB01000801
:1000A000DB010008DB010008DB010008DB010008C0
:1000B000DB0100082168000829680008DB0100084E
:1000C000DB010008DB010008DB010008DB010008A0
:1000D000DB010008A9720008BD720008DB010008FE
:1000E000DB010008DB010008DB010008DB01000880
:1000F000DB010008DB010008DB010008DB01000870
:10010000DB010008DB010008DB010008DB0100085F
:10011000DB010008DB010008DB010008DB0100084F
:10012000DB010008DB010008FD0E0008DB01000810
:10013000DB010008DB010008DB010008CD0E000830
:10014000BD0E0008DB010008DB010008DB01000830
:10015000DB010008DB010008DB010008CD720008AC
:10016000DB010008DB010008DB010008DB010008FF
:10017000DB010008DB010008DB01000800000000D3
:10018000DB010008DB010008DB010008DB010008DF
:10019000DB010008DB010008DB010008DB010008CF
:1001A0000000000000000000DB010008DFF80CD0B8
:1001B00000F034FE00480047FD76000838120020A9
:1001C0000648804706480047FEE7FEE7FEE7FEE7F1
:1001D000FEE7FEE7FEE7FEE7FEE7FEE75167000801
:1001E000AD01000870B405880E884468D1F804C0D9
:1001F0005368B54208D140884988884201BF1188B8
:100200008D425188884203D070BC6FF00200704765
:1002100005FB00F1880827D094ED001ADCED000AF8
:1002200094ED010ADCED011A31EE201AD4ED020A38
:1002300070EE211A9CED020A83ED001AC3ED011A3B
:1002400094ED031ADCED031A30EE800A401E71EEC5
:10025000210A83ED020A04F11004C3ED030A03F13D
:1002600010030CF1100CD7D111F0030030D0B0F115
:10027000004F30D200282BDD211F1B1FACF10402E0
:1002800010F0010F0AD091ED010AD2ED010A091D0B
:10029000121D30EE200A83ED010A1B1D400817D005
:1002A00091ED010AD2ED010A401E30EE200A83EDE5
:1002B000010A91ED020AD2ED020A01F1080102F1F0
:1002C000080230EE200A83ED020A03F10803E7D1A9
:1002D00070BC00207047B4EC010A401EFCEC010A1F
:1002E00030EE200AA3EC010AF5D1F1E7018042804B
:1002F000436070472DE9F34F84B004984068009044
:10030000486801900498B0F800E04588DFEDFE0AE7
:1003100000200290B0EE600AAE4506D108884988F8
:10032000884204BF7146864504D06FF0020006B0D3
:10033000BDE8F08F01985FEA010C18BFB7EE001A14
:100340003DD000BFBEEB0C0117D0B1F1004F80F0E3
:100350001F82002911DD021F11F0010F1CBFC2ED29
:10036000010A121D4B1006D0C2ED010AC2ED020AAD
:1003700008325B1EF8D100EB8100BCF10102A0EC59
:10038000011A19D0B2F1004F80F00882002A13DD63
:10039000031F12F0010F1CBFC3ED010A1B1D5110FA
:1003A00008D000BFC3ED010AC3ED020A491E03F1E4
:1003B0000803F7D100EB8200BCF1010CC2D14FF071
:1003C00000080395002D14BFB0EE602A002000F055
:1003D000BF8100BF009908FB05F001EB800B01997C
:1003E000DBED002A01EB80000346F0EE421AC64521
:1003F00052D9AEEB0802ABEB850112F0010F17D01A
:1004000001EB850191ED000AB5EEC00AF1EE10FA9C
:1004100007DDB4EEE10AF1EE10FA09DDF0EE401A64
:1004200006E0B1EE400AF4EEC01AF1EE10FAF5D390
:10043000521031D001EB850C9CED000AB5EEC00ADC
:10044000F1EE10FA05DDB4EEE10AF1EE10FA09DD85
:1004500006E0B1EE400AF4EEC01AF1EE10FA01D255
:10046000F0EE401A01EBC50191ED000AB5EEC00AAD
:10047000F1EE10FA05DDB4EEE10AF1EE10FA09DD55
:1004800006E0B1EE400AF4EEC01AF1EE10FA01D225
:10049000F0EE401A521ECDD1F5EEC01AF1EE10FA70
:1004A00000F07381F5EEC02A0126F1EE10FA0099F2
:1004B000D4BFB1EE620AB0EE620AB4EE610AF1EEA8
:1004C00010FA1CBFAEEB0802B2F1010C47D005FBDD
:1004D00008F201EB820292ED001A00BFB0EE410A71
:1004E00005FB06F4B5EEC00A00EB8404F1EE10FA49
:1004F000CCBFF0EE400AF1EE400AF4EE610AF1EEF4
:1005000010FA28D1B5EB080C11D0BCF1004F7DD208
:10051000BCF1000F0BDD00BF92ED000AD1ED000A27
:10052000BCF1010CE2EC010AA1EC010AF4D12900B2
:100530000ED0B1F1004F6AD2002909DD94ED000A16
:10054000D0ED000A491EE4EC010AA0EC010AF5D145
:10055000012002900BE0761CBCF1010CBED1029888
:10056000012804D0F5EEC02AF1EE10FA7ED09BED02
:10057000000AB5EB08009A465946064622D0B0F16B
:10058000004F74D200281DDD091F10F0010F06D0A6
:10059000F0EE400A80EEA01A81ED011A091D40100C
:1005A00010D000BFD1ED010A401E80EE801A81ED0F
:1005B000011A91ED021AC1EE000AC1ED020A01F121
:1005C0000801EFD1280026D0B0F1004F7ED20028DC
:1005D00021DDAAF1040110F0010F06D0D1ED010ACE
:1005E00080EE801A81ED011A091D401013D000BF62
:1005F000D1ED010A401E80EE801A81ED011AD1ED85
:10060000020A80EE801A81ED021A01E0CBE0D6E00A
:1006100001F10801ECD1DDE900124FF000095FEAB9
:100620000E0773D0C14504BF01EB860102EB8502C2
:1006300074D091ED000ADC465046331E35D01C467E
:10064000B6F1004F7ED2002C2FDD0B1FABF1040C56
:1006500016F0010F0FD0F0EE400ADCED011AB0EEFB
:10066000601A00EEE11A83ED011A01E08DE0B1E0BD
:100670001B1D0CF1040C741015D000BFD3ED010A42
:100680009CED011A40EE410AC3ED010AD3ED020AC6
:100690009CED021A0CF1080C40EE410AC3ED020A6F
:1006A0000833641EEAD101EB86012B0036D0B3F18A
:1006B000004F72D2002B31DDA2F1040CAAF104002C
:1006C00013F0010F0CD0DCED010A00E08BE090ED9F
:1006D000011A001D40EE410ACCED010A0CF1040C98
:1006E0005C1019D0DCED010A90ED011A40EE410AD0
:1006F000CCED010ADCED020A90ED021A083040EE62
:10070000410ACCED020A03E0000000000DE005E024
:10071000641E0CF1080CE5D102EB830201EB8801A9
:100720007F1E09F101097FF47DAF009808F10108EF
:10073000001D00900398401E03907FF44BAE029979
:10074000012900E058E004BF06B0BDE8F08F00BF0B
:10075000B5EEC00AF1EE10FA7FF4E9AD04990EFB94
:1007600005F3002B4A684FF000010BD902EB810C16
:100770009CED000AB5EEC00AF1EE10FA02D1491C58
:100780008B42F3D88B427FF4D2AD6FF00400CEE5FC
:10079000E0EC010A491EFBD1EFE538E0E0EC010A8C
:1007A000521EFBD108E692ED000AD1ED000ABCF121
:1007B000010CE2EC010AA1EC010AF4D1B7E694EDD8
:1007C000000AD0ED000A491EE4EC010AA0EC010A7F
:1007D000F5D1BDE6D1ED000A401E80EE801AA1ECF5
:1007E000011AF7D1EEE6D3ED000A401E80EE801A22
:1007F000A3EC011AF7D10EE7BCEC011AD1ED000A07
:100800005B1E40EE410AE1EC010AF5D14DE7B0EC88
:10081000011AD2ED000A5B1E40EE410AE2EC010A29
:10082000F5D17BE72DE9F04F82B04668536801931C
:10083000058847884B88002000900888874201BFC0
:10084000B2F800C06545528893421EBF6FF00200A7
:1008500002B0BDE8F08F9FED412A4FEA970EC7F333
:10086000400B00BFDDE9000202EB800A4A689846AF
:100870004FF00009B0EE420AB4465FEA0E0025D000
:1008800092ED001ADCED001A02EB8302DCED010AA6
:1008900001EE810A92ED001A02EB8302401ED2EDB6
:1008A000001A02EB830200EE810A9CED021ADCEDD5
:1008B000030A00040CF1100C000C01EE210A92ED69
:1008C000001A02EB830200EE810AD9D117F003006F
:1008D00026D0ACF10404A2EB830210F0010F08D083
:1008E00002EB8302D4ED010A92ED001A241D00EE02
:1008F000810A5FEA0B0013D002EB830CD4ED010AEE
:100900009CED001A02EBC302401E00EE810AD4EDFA
:10091000020A92ED001A04F1080400EE810AEBD1FC
:1009200009F10100AAEC010A1FFA80F9486800EBFE
:100930008902A8F101001FFA80F8B8F1000F99D1DF
:10094000009806EB8706184480B20090681E0504E4
:100950002D0C87D102B00020BDE8F08F0000000010
:1009600070B405880E884468D1F804C05368B54255
:1009700008D140884988884201BF11888D4251883A
:10098000884203D070BC6FF00200704705FB00F195
:10099000880827D094ED001ADCED000A94ED010AD6
:1009A000DCED011A31EE601AD4ED020A70EE611A24
:1009B0009CED020A83ED001AC3ED011A94ED031AAF
:1009C000DCED031A30EEC00A401E71EE610A83EDC1
:1009D000020A04F11004C3ED030A03F110030CF141
:1009E000100CD7D111F0030030D0B0F1004F30D24D
:1009F00000282BDD211F1B1FACF1040210F0010F9A
:100A00000AD091ED010AD2ED010A091D121D30EE46
:100A1000600A83ED010A1B1D400817D091ED010A01
:100A2000D2ED010A401E30EE600A83ED010A91ED1D
:100A3000020AD2ED020A01F1080102F1080230EEC9
:100A4000600A83ED020A03F10803E7D170BC0020BD
:100A50007047B4EC010A401EFCEC010A30EE600A5B
:100A6000A3EC010AF5D1F1E72DE9F05F054600207E
:100A700092469B4688460646814640241BE028460F
:100A800041464746224600F024F953465A46C01ACA
:100A9000914110D311461846224600F00BF92D1A49
:100AA00067EB01084F4622460120002100F002F9C1
:100AB00017EB00094E41201EA4F10104DFDC48467B
:100AC00031462A464346BDE8F09FD2B201E000F825
:100AD000012B491EFBD270470022F6E710B51346E2
:100AE0000A4604461946FFF7F0FF204610BD2DE9DF
:100AF000FE4F81EA030404F0004421F00041009419
:100B00004FF0000B23F0004350EA01045ED052EA9C
:100B100003045BD0C3F30A54C1F30A552C44A4F276
:100B2000F3340194A0FB0254C1F3130141F480118A
:100B3000C3F3130343F4801301FB024400FB034E91
:100B4000840A970A44EA815447EA8357A4FB07685A
:100B500002958D0A05FB07854FEA932C04FB0C5484
:100B60002705029D4FEA065847EA1637B5EB0805F8
:100B70006EEB070C870E920E47EA811742EA83124A
:100B8000A7FB0201B6EB0B0164EB00042B0D43EA5B
:100B90000C335E1844EB1C50DA465146E7FB020169
:100BA000C5F313044FEA0B3343EA14534FEA0432FC
:100BB000019C43EA0603A4F10C040294009CCDE9D5
:100BC00000B400F0DCF803B0BDE8F08F002001466F
:100BD000F9E70EB5C10F80EAE0700844CA070021AA
:100BE00040F233438DE80E000A460B4600F0C7F88A
:100BF00003B000BD00F0004230F000400AD0C10D4B
:100C000001F56071C0F3160042EA0151C2084007C5
:100C100011437047002001467047000030B5041EA4
:100C200071F1000404DB4FF00044404264EB010129
:100C3000141E73F1000405DB1C464FF000435242C2
:100C400063EB04038B4208BF824230BD30B5041E03
:100C500071F1000404DB4FF00044404264EB0101F9
:100C6000141E73F1000405DB1C464FF00043524292
:100C700063EB0403994208BF904230BD01F000438A
:100C800030B421F0004150EA010206D00A0DA2F56D
:100C90006072C1F31301002A02DC30BC00207047EF
:100CA000440F44EAC104C100E01830BC00EBC2505C
:100CB00000F01FB8202A04DB203A00FA02F10020DD
:100CC00070479140C2F1200320FA03F3194390408A
:100CD0007047202A04DB203A21FA02F000217047F5
:100CE00021FA02F3D040C2F1200291400843194694
:100CF00070470029A8BF7047401C490008BF20F07A
:100D00000100704710B4B0FA80FC00FA0CF050EA11
:100D1000010404BF10BC704749B1CCF1200421FA92
:100D200004F411FA0CF118BF012121430843A3EB8D
:100D30000C01CB1D4FEA00614FEA102042BF00209A
:100D400010BC704700EBC35010440029A4BF10BC76
:100D50007047401C490008BF20F0010010BC7047DC
:100D600010B5141E73F1000408DA401C41F10001B3
:100D700092185B411A4301D120F0010010BD2DE90A
:100D8000F04D92469B4611B1B1FA81F202E0B0FA01
:100D900080F220329046FFF78DFF04460F4640EA6E
:100DA0000A0041EA0B0153465A46084313D0114644
:100DB00053EA010019D0C8F140025046FFF789FFFD
:100DC00005460E46504659464246FFF773FF084314
:100DD00005D0012004E020463946BDE8F08D002012
:100DE000054346EAE0762C4337430A986305E40A54
:100DF000A0EB08000022FD0A44EA47540A3002D55D
:100E000000200146E9E7010510196941DDE90845BF
:100E100000196941BDE8F04DA2E70000064C074DFE
:100E200006E0E06840F0010394E8070098471034BA
:100E3000AC42F6D3FFF7BEF9807B0008A07B000828
:100E400070B58C1810F8015B15F0070301D110F88C
:100E5000013B2A1106D110F8012B03E010F8016BB9
:100E600001F8016B5B1EF9D12B0705D40023521E3C
:100E70000DD401F8013BFAE710F8013BCB1A921CA4
:100E800003E013F8015B01F8015B521EF9D5A142A2
:100E9000D8D3002070BD00BFFEE7000010B50248A7
:100EA00002F0A5F810BD00007C04002010B5024837
:100EB00002F09DF810BD00007C04002010B502482F
:100EC00002F095F810BD0000A404002010B50248FF
:100ED00002F08DF810BD0000A404002010B50248F7
:100EE00002F0F0FC10BD0000E806002010B502483A
:100EF00002F0E8FC10BD00004807002010B50248D1
:100F000002F0E0FC10BD00008806002001460878D1
:100F100010381823B0FBF3F20848805CC865032A38
:100F200005D908686FF30900001D886503E00868AB
:100F30006FF309008865886D70470000607B0008CA
:100F4000014600208A6A8B69CBB932B1012A0DD0E3
:100F5000022A03D0032A10D10EE000BFCB6A03F0AF
:100F60008073B3F1807F00D1012007E0CB6AB3F139
:100F7000C07F00D1012001E000E000BF34E08B69B8
:100F8000B3F5005F1AD132B1012A07D0022A03D08B
:100F9000032A11D10AE000BF01200EE0CB6A03F062
:100FA0008073B3F1807F00D1012006E0CB6AB3F1FA
:100FB000C07F00D1012000E000BF15E032B1012A5E
:100FC00005D0022A04D0032A0CD103E000BF00BFE1
:100FD000012008E0CB6A03F08073B3F1807F00D179
:100FE000012000E000BF00BF704730B504682468EE
:100FF00024F4802405682C60046863608468402CB5
:1010000004D10468A2600468E16003E00468A160A0
:101010000468E26030BD70477047000010B50D48AD
:10102000007C012802D10C49086011E00948408A7F
:10103000C00B18B102200849086009E000F002FD69
:1010400018B103200449086002E002200249086048
:1010500010BD000026080020180300201348407A25
:10106000022817D11148007A01280FD110480078C2
:10107000012803D102200E4908700EE00C480078C8
:1010800002280AD100200A49087006E00120084918
:10109000087002E000200649087005480078022820
:1010A00001D1012070470020FCE700002608002045
:1010B00048030020F0B589B007460C4615461E4689
:1010C00040F2FF1003900020059006900820079042
:1010D000380A8DF80400F8B28DF80500200A8DF862
:1010E0000600E0B28DF80700280A8DF80800E8B283
:1010F0008DF80900300A8DF80A00F0B28DF8090069
:10110000012301AA03A9024801F075FD09B0F0BD51
:101110007C04002010B52DED0A8BB3EE040AF0EE2E
:10112000409AF6484068F6490860F4480068F54976
:101130000860F2488068F4490860084690ED000AAB
:10114000B5EEC00AF1EE10FA03D29FEDF00A80ED81
:10115000000AED4890ED000AED4804F0C5F8EA48B1
:1011600080ED000AEB480078E0B1EB4890ED010A11
:10117000E348D0ED000A30EE200AE84880ED000A8E
:10118000E54890ED020ADF48D0ED000A30EE200A73
:10119000E34880ED000A0020DE490870E14800685D
:1011A000E1490860E0480068DF494968884216D094
:1011B000DD480068DC494968401ADC490860D748C6
:1011C00090ED000ADA4880ED000AD54890ED000A5B
:1011D000D84880ED000AD4480068D3494860C74821
:1011E000407B01282BD1D0480168D14890ED000AFE
:1011F000D14805F0B7FCD14880ED000ACA48016823
:10120000CC4890ED000ACE4805F0ACFCCD4880ED0E
:10121000000ACA48D0ED000AC54890ED000ACA4845
:1012200006F0B0F9C9490860C648D0ED000AC148C7
:1012300090ED000AC64806F0A5F9C6490860C64800
:101240000068C6490860AD48407B01287DD1C4488C
:101250000088401CC2490880A848C07B012812D1E0
:10126000C04890ED000AC04880ED000ABF4890EDEC
:10127000000ABF4880ED000ABE4890ED000ABE4853
:1012800080ED000A27E000F0DDFB90B1BB4890ED57
:10129000000AB54880ED000AB44890ED000AB44851
:1012A00080ED000AB64890ED000AB34880ED000AD0
:1012B00011E0AC4890ED000AAB4880ED000AAB4865
:1012C00090ED000AAA4880ED000AAA4890ED000AB5
:1012D000A94880ED000A8A4890ED000AB5EEC00AE0
:1012E000F1EE10FA02DD90ED000A04E0844890ED82
:1012F000000AB1EE400AA348D0ED000AB4EEE00ABD
:10130000F1EE10FA7ED29648008894490968884226
:1013100078DD99480068FFF76DFC41EC1A0B8B48AB
:10132000006890ED010A10EE101A0846FFF762FC03
:1013300041EC1C0BB0EE4C0AF0EE6C0A05F0ECFF31
:10134000B0EE40BAF0EE60BA00E040E253EC1A2B87
:1013500051EC1B0BFFF77AFC54D88B480068FFF761
:1013600049FC41EC1A0B7948006890ED010A10EE37
:10137000101A0846FFF73EFC41EC1C0BB0EE4C0A7D
:10138000F0EE6C0A05F0C8FFB0EE40BAF0EE60BABD
:1013900053EC1A2B51EC1B0BFFF740FCB2D201208F
:1013A0007A4908706948006890ED010AB5EEC00AF4
:1013B000F1EE10FA0EDB6548006890ED010A6E4808
:1013C000D0ED000A30EE600A6748D0ED000A60EE0A
:1013D000208A16E05D48006890ED010AB5EEC00A6B
:1013E000F1EE10FA0DD25948006890ED010A6248FA
:1013F000D0ED000A30EE200A5B48D0ED000A60EE26
:10140000208A00E0DFE0594890ED001A90ED000AD4
:10141000F1EE400AB0EE680A05F0AEFFF0EE408A49
:10142000B0EE691AF0EE490AB0EE680A04F0FCFA70
:10143000B0EE409A4D4890ED001A90ED000AF1EEA2
:10144000400AB0EE490A05F097FFB0EE409A3F48D7
:10145000006890ED000A30EE090A4D4880ED010A5F
:101460003A48006890ED010AB5EEC00AF1EE10FAB4
:101470001DDD234890ED000ADFED460AB4EEE00AD8
:10148000F1EE10FA13D20020434908804348008847
:10149000401C4249088008460088002803DD0120DE
:1014A0003F49087088E000203D49087084E02748E3
:1014B000006890ED010AB5EEC00AF1EE10FA74D2A0
:1014C0000F4890ED000ADFED370AB4EEE00AF1EEC6
:1014D00010FA6ADD0020314908802F480088401C3E
:1014E0002D49088008460088002803DD01202C498A
:1014F000087061E000202A4908705DE0F00D0020CE
:101500009C000020A4000020AC000020000000008F
:10151000040C0020C8030020CC080020CC020020CE
:10152000D0020020A80300207802002080020020C2
:10153000C4020020C8020020280C0020F000002077
:10154000440C0020F4000020600C0020F800002073
:10155000CC0C0020FC000020D400002094020020CD
:10156000B8000020BC00002084020020E800002019
:1015700088020020D800002098020020C00000202F
:10158000DC000020CC000020E000002098000020BB
:10159000BC0800209A99993E6C0200206A02002043
:1015A000690200209A9999BEFFE70020D849087087
:1015B000D8490880D84908800120D84908700020FF
:1015C000D74908803DE00020D6490870D648006819
:1015D00090ED000AD54880ED010A0020CF4908703F
:1015E000CC490880CC490880D14890ED000A10EE23
:1015F000101A0846FFF7FEFA41EC1B0BB0EE4B0A3F
:10160000F0EE6B0A05F088FEB0EE40AAF0EE60AA9C
:101610009FEDC80B53EC102B51EC1A0BFFF7FEFAA1
:101620000CD2BF480088401CBD490880084600888D
:10163000192806DD0120B649087002E00020B449EF
:101640000870BE480088BE49096888427DDDBD48F3
:101650000068FFF7CFFA41EC1A0BBB4890ED000A87
:1016600010EE101A0846FFF7C5FA41EC1C0BB0EE5D
:101670004C0AF0EE6C0A05F04FFEB0EE40BAF0EE08
:1016800060BA53EC1A2B51EC1B0BFFF7C7FA5CD274
:10169000AE480068FFF7AEFA41EC1A0BAC480068A0
:1016A00090ED010A10EE101A0846FFF7A3FA41EC7C
:1016B0001C0BB0EE4C0AF0EE6C0A05F02DFEB0EEFD
:1016C00040BAF0EE60BA53EC1A2B51EC1B0BFFF74B
:1016D000BDFA74D200F088F910B100F065F9A0BB32
:1016E0009C48806800EE100ADFED9B0AB4EEE00A29
:1016F000F1EE10FA63D29748C07B012814D19748C5
:1017000090ED000AF0EE000A80EE201A944880ED79
:10171000001A944890ED000AF7EE080A80EE201AAD
:10172000914880ED001A0BE08C4890ED000A8C483F
:1017300080ED000A8B4890ED000A8B4880ED000A8E
:101740008348006890ED010A00E038E0B5EEC00A79
:10175000F1EE10FA0EDB7E48006890ED010A7B483E
:10176000D0ED000A30EE600A7D48D0ED000A20EE90
:10177000208A0DE07648006890ED010A7348D0EDAC
:10178000000A30EE200A7648D0ED000A20EE208ACA
:10179000754890ED001A90ED000AF1EE400AB0EEA7
:1017A000480A05F0E9FDB0EE408A6948006890ED0E
:1017B000000A30EE080A5D4880ED020AA4E06448A1
:1017C000006890ED000A594880ED020A9CE06748E5
:1017D000D0ED010AB0EE600A5FEDB40A644805F08E
:1017E000D1FE514908606148D0ED020AB0EE600AAE
:1017F0005FEDBA0A5F4805F0C5FE554908605E48CE
:101800000078B0B9494890ED020A5C48B0F90C0084
:1018100000EE900AF8EEE00A594890ED001A00EE4A
:10182000810A424880ED020A9FED560A80ED000AC7
:101830006AE051480078012866D15048B0F90A00A2
:1018400000EE100AF8EEC00A4F4890ED001A4F481B
:1018500090ED000A00EE810A80ED000A4748B0F9D9
:101860000C0000EE100AF8EEC00A494890ED001A8C
:10187000484890ED000A00EE810A80ED000A3F48DA
:10188000408970B944480068401C434908600846D4
:101890000068192808D91FEDE30A3C4880ED000ACA
:1018A00002E000203C4908603448808970B93B4818
:1018B0000068401C3949086008460068192808D9A2
:1018C0001FEDEE0A334880ED000A02E000203349A4
:1018D00008601648D0ED010AB0EE600A3048D0ED3D
:1018E000000A2A4804F0B8FC104880ED010AD0ED47
:1018F000020AB0EE600A2B48D0ED000A254804F039
:10190000ABFC0A4880ED020ABDEC0A8B10BD00005A
:10191000690200206A0200206C0200206802002098
:101920006E02002098000020F8000020BC08002073
:101930009C0000200000000000003440B80000209F
:10194000D4000020D0000020A4000020E4000020EB
:10195000FC000020F00D002000007A44C8000020A8
:101960008C020020EC00002090020020CC08002017
:10197000600C0020CC0C0020240000202608002051
:10198000440000200050CA45500000208400002080
:101990004C00002088000020BC020020C002002073
:1019A00078000020740000200B4890ED020ADFED63
:1019B0000B0A30EEC00A0A48D0ED000AB4EEE00A85
:1019C000F1EE10FA04D90748408AC0F3802008B12C
:1019D000012070470020FCE7CC0800200000BB4439
:1019E0002800002026080020114890ED020ADFEDB3
:1019F000110A30EEC00A104880ED000A90ED000A8E
:101A00000E48D0ED000AB4EEE00AF1EE10FA0CD860
:101A1000094890ED000A0A48D0ED000AB4EEE00A49
:101A2000F1EE10FA01DD012070470020FCE7000014
:101A3000CC0800200000BB449C02002028000020AD
:101A40002C00002000207047104890ED000ADFEDC8
:101A5000100A30EE600AFFEE000A20EE200ABDEE0A
:101A6000C00A10EE100A01B2B1F5805F04DDA1F5E5
:101A7000F850FF3800B2704711F5805F04DA41F684
:101A8000FF70084400B2F6E70846F4E7CC080020EF
:101A90000050CA45134890ED020ADFED130A30EEFC
:101AA000600AB5EEC00AF1EE10FA06DD90ED020A0A
:101AB000DFED0D0A30EE600A08E00A4890ED020AF8
:101AC000B1EE400ADFED080A30EE600ADFED070AEA
:101AD000B4EEE00AF1EE10FA01D8012070470020C0
:101AE000FCE70000CC080020000030440000484221
:101AF00010B50020654908709FED650A654880EDC6
:101B0000000A9FED650A654880ED000A9FED640AB2
:101B1000644880ED000AB6EE000A634880ED000AD2
:101B20009FED620A624880ED000A9FED620A6248FA
:101B300080ED000AB7EE000A604880ED000AB7EEBB
:101B4000000A5F4880ED000AB2EE0E0A5D4880EDA3
:101B5000000AB2EE0E0A5C4880ED000AB3EE040AF9
:101B60005A4880ED000AB3EE040A594880ED000A95
:101B7000B1EE000A574880ED000AB0EE080A564858
:101B800080ED000AB2EE000A544880ED000A9FED95
:101B9000540A544880ED240A9FED510A80ED000A52
:101BA0009FED510A80ED270AB7EE000A80ED280A62
:101BB0009FED4E0A80ED290A9FED4D0A80ED030A44
:101BC000B7EE000A80ED040A9FED480A80ED050A91
:101BD0009FED480A80ED120A9FED470A80ED150A35
:101BE0009FED420A80ED160A9FED400A80ED170A2C
:101BF0009FED3E0A80ED300A9FED3C0A80ED0C0A15
:101C00009FED3A0A80ED330A9FED380A80ED340AE1
:101C10009FED360A80ED350A9FED340A80ED0F0AFC
:101C20009FED320A80ED100A9FED300A80ED110A17
:101C30009FED2E0A80ED1E0A9FED2C0A80ED210AF1
:101C40009FED2A0A80ED220A9FED280A80ED230AE3
:101C5000DFED2A0AB7EE000A294803F035FBDFED75
:101C6000270AB7EE000A274803F02EFBDFED230A10
:101C7000B7EE000A244803F027FBDFED240AB7EE95
:101C8000000A234803F020FB10BD000024000020C0
:101C90000AD723BC340000200AD7233C30000020A0
:101CA0009A9919BE3C000020480000206666E63E76
:101CB000440000205C8FC2BE500000207C00002049
:101CC0008000002074000020780000208C0000209C
:101CD00090000020B0000020B400002094000020FC
:101CE0000000B442780A002000007A43000000009F
:101CF000000034430000C8420000A042000020421F
:101D0000980B0020BC0B0020E00B00200000FA44E0
:101D1000040C002010B500F01BFF2A48007838B9E9
:101D20002948006805284BDD01202649087047E056
:101D300026480078A8B90120244908702448008A60
:101D400000EE100AB8EE400A224880ED020A204850
:101D5000808800EE100AB8EE400A1E4880ED000AA6
:101D60002EE01C4890ED020AF0EE400A1A4890ED71
:101D7000001A9FED1A0A03F057FE164880ED020A7A
:101D8000FFF788FEE0B1134890ED000AF0EE400A3C
:101D9000134890ED001A9FED130A03F045FE0D481D
:101DA00080ED000AFFF750FE002802DDFFF74CFE31
:101DB00002E0FFF749FE4042322801DC012010BD5D
:101DC0000020FCE7A0020020BC030020A1020020AC
:101DD000D8070020BC0800207C0000200000304410
:101DE000800000200050CA4510B530480078012816
:101DF00001D100F09FFD2E480078052854D2DFE87D
:101E000000F003244506270000F07EF84CE0012096
:101E100026490870274890ED000AB5EEC00AF1EE99
:101E200010FA03D10020224908700DE02248D0EDBD
:101E3000010AB0EE600A2148D0ED000A1D4804F006
:101E40000BFA1D4880ED010A2EE000F03DF82BE072
:101E50000120164908701A4890ED000AB5EEC00A34
:101E6000F1EE10FA03D10020114908700DE012487C
:101E7000D0ED010AB0EE600A1048D0ED000A10481B
:101E800004F0EAF90C4880ED010A0DE00120074951
:101E900008700C48407C012803D0002004490870D9
:101EA00001E0FFF737F900BF00BF10BD240000209C
:101EB0002500002070020020BC08002090000020B7
:101EC00074020020260800200020094908700948F3
:101ED000007818B900200849087008E09FED070A4B
:101EE000074880ED000A9FED070A80ED020A70475F
:101EF00024000020D6030020250000200050CA4501
:101F0000BC0800200000304410B58A4800688A49A7
:101F100008608A48807CC0F3401070BB8748408AC4
:101F2000C0F3803048B30846006885490968884294
:101F300024D90320834908707F48006832308049E3
:101F400008607E48807CC0F3800028B19FED7E0A47
:101F50007E4880ED000AEBE07848807CC0F3C0004A
:101F600028B19FED7B0A794880ED000AE0E09FED03
:101F7000780A764880ED000ADAE0FFE76F48807C57
:101F8000C0F34010C8BB6D48807CC0F3801028B1FE
:101F9000694800686F49096888420AD86748807CA8
:101FA000C0F3C01048B3644800686B4909688842B0
:101FB00024D90420634908706048807CC0F38010F5
:101FC00050B15D4800681930624908609FED630AAE
:101FD000634880ED000AABE05848807CC0F3C01035
:101FE0000028B8D05448006819305B4908609FED5C
:101FF0005D0A5B4880ED000A9AE0FFE75A480078E6
:1020000018B101204F49087092E04C48407C0128EB
:1020100003D102204B4908708AE054480078E0B9A7
:10202000534890ED020A4548B0F90C0000EE900AC2
:10203000F8EEE00A4F4890ED001A00EE810A4C4895
:1020400080ED020A9FED4C0A80ED000A4B4890EDAE
:10205000010A474880ED010A6AE0444800780128F7
:1020600066D13648B0F90A0000EE100AF8EEC00A50
:10207000434890ED001A434890ED000A00EE810AB3
:1020800080ED000A2D48B0F90C0000EE100AF8EEC1
:10209000C00A3D4890ED001A3C4890ED000A00EE61
:1020A000810A80ED000A2548408970B938480068E7
:1020B000401C3749086008460068192808D99FED78
:1020C000350A304880ED000A02E0002030490860FF
:1020D0001A48808970B930480068401C2E49086051
:1020E00008460068192808D99FED2A0A274880ED7C
:1020F000000A02E00020284908601D48D0ED010ACE
:10210000B0EE600A2548D0ED000A1E4804F0A4F89D
:10211000174880ED010AD0ED020AB0EE600A2048AF
:10212000D0ED000A194804F097F8114880ED020A32
:1021300010BD0000BC030020A402002026080020DF
:10214000A80200202500002000B05F45700200209A
:1021500000B05FC5AC020020B002002000A0DF4448
:102160007402002000A0DFC4D60300202400002059
:10217000BC080020440000200050CA45CC080020C4
:1021800050000020840000204C0000208800002027
:10219000B402002000000000B802002078000020F7
:1021A0007400002000B52DED028B83B0FA48D0ED0D
:1021B000020AB0EE600A9FEDF91ADFEDF90A05F0A8
:1021C000DBF8F54880ED020A90ED000AF548D0ED05
:1021D000000A30EE600AB0EE408AB0EE480AF248DB
:1021E00003F082F8B0EE408AF048007800EB40013E
:1021F000EF4800EBC10090ED000A20EE080ADFED89
:10220000ED0A20EE200AEC4880ED000AE74800784D
:1022100000EB4001E64800EBC10090ED030AE64800
:10222000D0ED000A20EE200AE44880ED000ADF48E5
:10223000007800EB4001DE4800EBC100D0ED040A5D
:10224000DD4890ED001ADE4890ED000A00EE810AAC
:1022500080ED000A9FEDDB1ADFEDDB0A90ED000A4E
:1022600005F08AF8D64880ED000AD34890ED000AC0
:10227000D0ED010A30EE600ACC48007800EB400156
:10228000CB4800EBC100D0ED050A20EE200ACF4874
:1022900080ED000AC94890ED000AC948D0ED000A57
:1022A00030EE200AC948D0ED000A30EE200AC848B6
:1022B00080ED000A9FEDC71ADFEDC70A90ED000A16
:1022C00005F05AF8C24880ED000ABB4890ED000ABC
:1022D00080ED010AC148007810B101287ED1B3E039
:1022E000BF48007801281BD19FEDBE0A8DED020A80
:1022F0009FEDBC0ABC4880ED020A9FEDBA0A80ED52
:10230000030A9FEDB80AB94880ED010A9FEDB50AAE
:10231000B74880ED010A9FEDB30AB64880ED010A87
:102320009D4890ED000A9F48D0ED000A30EE600A0B
:102330008DED010ADDED010AB0EE600AAE4802F053
:10234000D3FF8DED010A9948007800EB40009849D1
:10235000903901EBC00090ED000ADDED010A20EE9E
:10236000200ADFED940A20EE200A9F4880ED000A43
:102370008E48007800EB400001EBC00090ED030AAE
:102380009948D0ED000A20EE200A984880ED000A16
:10239000974890ED000A8548007800EB400001EB7B
:1023A000C000D0ED040A904890ED001A00EE810ABA
:1023B0008F4880ED000AD0ED000AB0EE600A9FED74
:1023C000811ADFED810A04F0D7FF894880ED000A09
:1023D000854890ED000AD0ED010A00E0D6E030EE2D
:1023E000600A7248007800EB40007149903901EBB7
:1023F000C000D0ED050A20EE200A7E4880ED000ADC
:102400007A4890ED000A7A48D0ED000A30EE200AB2
:102410007848D0ED000A30EE200A784880ED000AB6
:102420009FED6C1ADFED6C0A90ED000A04F0A4FF3A
:10243000724880ED000A6C4890ED000A80ED010AB8
:10244000002067490870A1E065480078D8B99FED81
:10245000650A8DED010A9FED630A634880ED000A6D
:102460009FED600A80ED010A9FED5E0A5F4880EDF6
:10247000000A9FED5C0A5E4880ED000A9FED590A54
:102480005C4880ED000A4948007800EB400148486C
:10249000483800EBC10090ED000ADDED020A20EEA5
:1024A000200ADFED440A20EE200A4F4880ED020AA0
:1024B0003E48007800EB40013D48483800EBC10041
:1024C00090ED030A4848D0ED020A20EE200A474862
:1024D00080ED010A464890ED010A3448007800EB8F
:1024E00040013348483800EBC100D0ED040A3E48B3
:1024F00090ED021A00EE810A3D4880ED010AD0ED10
:10250000010AB0EE600A9FED2F1ADFED2F0A04F0EA
:1025100033FF374880ED010A334890ED020AD0EDD1
:10252000030A30EE600A2148007800EB40012048A1
:10253000483800EBC100D0ED050A20EE200A2D48F6
:1025400080ED010A294890ED010A2948D0ED010AE1
:1025500030EE200A2748D0ED010A30EE200A274845
:1025600080ED000A9FED1B1ADFED1B0A90ED000ABB
:1025700004F002FF214880ED000A1B4890ED020A9A
:1025800080ED030A01201649087000BF00BF03B0A8
:10259000BDEC028B00BD0000BC0800200000BB4465
:1025A0000000FC42CC080020980B002025000020F1
:1025B000080B0020A69B443BD8020020E00200202C
:1025C000EC02002000A08C4600A08CC6F80200207F
:1025D0006C000020004AB646004AB6C6240000201F
:1025E000D402002000000000380D0020E40200208A
:1025F000F0020020FC020020BC0B00207000002034
:102600007248007800EB4001714800EBC10090ED8A
:10261000000A704880ED000A6C48007800EB400129
:102620006B4800EBC10090ED010A6A4880ED010A99
:102630006648007800EB4001654800EBC10090ED72
:10264000020A644880ED020A6048007800EB40010D
:102650005F4800EBC10090ED030A5E4880ED100A70
:102660005A48007800EB4001594800EBC10090ED5A
:10267000040A584880ED110A5448007800EB4001E4
:10268000534800EBC10090ED050A524880ED120A54
:1026900051480078E8BB4D48007800EB40004C49B9
:1026A000903901EBC00090ED000A4C4880ED000A23
:1026B0004648007800EB400001EBC00090ED010AB5
:1026C000464880ED010A4148007800EB400001EBEC
:1026D000C00090ED020A414880ED020A3B480078B4
:1026E00000EB400001EBC00090ED030A3B4880ED99
:1026F000100A3648007800EB400001EBC00090ED76
:10270000040A364880ED110A3048007800EB40009A
:1027100000E007E001EBC00090ED050A2F4880EDD6
:10272000120A51E02C48007801284DD12748007842
:1027300000EB40012648483800EBC10090ED000A4C
:10274000274880ED000A2148007800EB400120482E
:10275000483800EBC10090ED010A214880ED010AE4
:102760001A48007800EB40011948483800EBC100D6
:1027700090ED020A1A4880ED020A1448007800EB36
:1027800040011348483800EBC10090ED030A14489B
:1027900080ED100A0D48007800EB40010C484838E5
:1027A00000EBC10090ED040A0D4880ED110A0748C6
:1027B000007800EB40010648483800EBC10090ED7E
:1027C000050A074880ED120A704700002500002026
:1027D000080B0020EC0800202400002070090020D5
:1027E000F409002000B549480078012801D100F023
:1027F000A1F84748407A022803D1012043490870D4
:1028000006E04348407A032802D100203F4908707F
:102810004048007828B39FED400A404880ED020A06
:102820003A48007828B99FED3E0A3C4880ED000AFE
:102830006BE036480078012867D1384890ED010AEE
:102840003348B0F90000404200EE900AF8EEE00A8A
:10285000344890ED001A00EE810A304880ED010AFC
:1028600053E02A48007838BB2C4890ED020A2848EB
:10287000B0F9020000EE900AF8EEE00A2A4890ED66
:10288000001A00EE810A254880ED020A2048B0F9BE
:10289000000000EE100AB8EEC00A2448D0ED000A8D
:1028A00020EE200A1D4880ED000A214890ED010A23
:1028B0001A4880ED010A28E014480078012824D144
:1028C000164890ED020A1248B0F90200404200EEAC
:1028D000900AF8EEE00A144890ED001A00EE810A22
:1028E0000E4880ED020A90ED010A0948B0F9000097
:1028F000404200EE900AF8EEE00A0A4890ED001A15
:1029000000EE810A054880ED010A00BD2400002088
:1029100026080020D603002000003044BC08002018
:102920000050CA453C000020300000203400002048
:10293000CC08002000B5FFF787F810F5487F09DCC8
:102940006A48B0F90A00002813DC6848B0F90000B2
:1029500000280EDCFFF778F8B0F5487F7DDB634890
:10296000B0F90A00002804DB6048B0F90000002834
:1029700073DA5F4890ED000ADFED5E0A80EE201A00
:102980005D4890ED000A30EE410A80ED000A58489B
:1029900090ED000AB1EE400A9FED561AC0EE010A12
:1029A000564890ED000A30EE600A80ED000A50486B
:1029B00090ED000ADFED520A80EE201AB5EEC01A43
:1029C000F1EE10FA06DDD0ED000A9FED4D1A80EE13
:1029D000810A08E0464890ED000AF1EE400A9FEDBA
:1029E000481A80EE810A4448D0ED000AF5EEC00A8C
:1029F000F1EE10FA02DDD0ED000A04E03E48D0ED21
:102A0000000AF1EE600AB4EEE00AF1EE10FA32DCF0
:102A1000374890ED000ADFED3A0A80EE201AB5EE55
:102A2000C01AF1EE10FA06DDD0ED000A9FED341A5F
:102A300080EE810A08E02E4890ED000AF1EE400A8F
:102A40009FED2F1A80EE810A2C48D0ED000AF5EE9A
:102A5000C00AF1EE10FA04DD00E017E0D0ED000A44
:102A600004E02648D0ED000AF1EE600AB4EEE00A78
:102A7000F1EE10FA18DD9FED230A1F4880ED000AE1
:102A80009FED200A1D4880ED000A0DE0184890EDEA
:102A9000000A194880ED000A1B4890ED000AB1EECB
:102AA000400A164880ED000AFEF7CEFF002804DC3D
:102AB0000E48B0F90A00002808DCFEF7C5FF002820
:102AC0000ADB0A48B0F90A00002805DA9FED0D0A72
:102AD0000A4880ED000A07E00B4890ED000AB1EECD
:102AE000400A064880ED000A00BD000026080020CC
:102AF00040000020000096433C00002050000020D1
:102B000000009143000000005400002030B589B05F
:102B100005460C4640F2FF200390002005900690E9
:102B200004200790280A8DF80400E8B28DF805000B
:102B3000200A8DF80600E0B28DF80700012301AAF3
:102B400003A9024800F057F809B030BD7C0400200A
:102B50001948808800EE100AB8EE400A174880ED48
:102B6000000A1548B0F9060000EE100AB8EEC00AD7
:102B7000134880ED000A1048008A00EE100AB8EEF3
:102B8000400A0E4880ED020A0B48B0F9120000EE30
:102B9000100AB8EEC00A0A4880ED020A094890ED12
:102BA000000A064880ED010A074890ED000A044833
:102BB00080ED010A70470000D8070020CC080020F3
:102BC000DC080020A00300209C03002010B5024672
:102BD00092F82030012B01D0022B06D110684069F9
:102BE000084314686061002010BD506A40F48020E2
:102BF00050620120F8E7F0B504460D461E4694F8F1
:102C0000207020688368A86800B900E000BF012F29
:102C100001D0022F7CD103F0806030B903F0006056
:102C200018B903F08050002873D0C3F30161022962
:102C300005D9606A40F4000060620120F0BD012007
:102C400088403060A86860B9B5F800C0E86840EA1C
:102C50004C5C206800F5C07000EB0110C0F800C0AB
:102C60000FE0D5E901C040EACC00D5F80CC040EA3D
:102C70000C00D4F800C00CF5C07C0CEB011CCCF8A7
:102C80000000D5F810C0206800F5C07000EB0110FE
:102C9000C0F804C0287D01280ED1206800F5C0705E
:102CA00000EB0110406840F4807C206800F5C070A3
:102CB00000EB0110C0F804C0D079000692F806C0FD
:102CC00040EA0C4092F805C040EA0C2C10794CEA1E
:102CD000000C206800F5C07000EB0110C0F80CC0BB
:102CE000D078000692F802C040EA0C4092F801C089
:102CF00040EA0C2092F800C040EA0C00D4F800C072
:102D00000CF5C07C0CEB011CCCF80800206801E03D
:102D100016E00FE000F5C07000EB0110006840F015
:102D2000010C206800F5C07000EB0110C0F800C075
:102D3000002083E7606A40F40010606201207DE7B4
:102D4000606A40F480206062012077E7F0B50446B5
:102D50000A46216894F82050012D01D0022D7ED121
:102D6000424901F50071086840F0010008600868F8
:102D700020F47C5008600868566A40EA0620086023
:102D8000107D00F01F06012000FA06F3C869984381
:102D9000C861A1F50071D069C8B9D1F80C02984397
:102DA000C1F80C02908880B2968940EA064601F587
:102DB0001070576940F83760108880B2168940EA71
:102DC000064601F51070576900EBC7004660D069F0
:102DD000012819D1D1F80C021843C1F80C029088CF
:102DE00080B2168840EA064601F51070576940F82F
:102DF0003760908980B2168940EA064601F5107066
:102E0000576900EBC7004660906928B9D1F8040201
:102E10009843C1F8040204E0D1F804021843C1F851
:102E20000402106928B9D1F814029843C1F81402B9
:102E300004E0D1F814021843C1F81402106A012802
:102E400004D1D1F81C021843C1F81C02D1F80002C9
:102E500020F00100C1F800020020F0BDFFE7606A29
:102E600040F4802060620120F7E700000064004029
:102E7000704770B5044694F82050012D01D0022D02
:102E80007CD151B92068C06800F0030080B9606A45
:102E900040F400106062012070BD2068006900F0FD
:102EA000030028B9606A40F4001060620120F3E773
:102EB000206800F5D87000EB0110006800F00400F5
:102EC0009060906840B9206800F5D87000EB011060
:102ED0000068400D106007E0206800F5D87000EB36
:102EE00001100068C0085060206800F5D87000EB41
:102EF0000110006800F002004008D060206800F572
:102F0000D87000EB0110406800F00F0010612068DD
:102F100000F5D87000EB0110406800F47F40000A13
:102F20009061206800F5D87000EB01104068000C3B
:102F30005061206800F5D87000EB011080681870AF
:102F4000206800F5D87000EB0110806800F47F4025
:102F5000000A5870206800F5D87000EB01108068F6
:102F600000F47F00000C9870206800F5D87000EB2A
:102F700001108068000ED870206800E031E000F594
:102F8000D87000EB0110C0681871206800F5D87087
:102F900000EB0110C06800F47F40000A58712068FF
:102FA00000F5D87000EB0110C06800F47F00000C41
:102FB0009871206800F5D87000EB0110C068000E11
:102FC000D87131B92068C06840F020002668F060F0
:102FD00005E02068006940F020002668306100208C
:102FE0005AE7606A40F480206062012054E72DE9CE
:102FF000F05F04460025206846692068D0F80490F8
:10300000206887682068D0F80CA02068D0F810B03D
:103010002068D0F8188006F00100002855D007F08D
:103020000100C0B101202168886007F0020018B1DA
:10303000204600F024FC0EE007F0040010B145F437
:10304000006508E007F0080010B145F4805502E083
:10305000204600F013FC07F48070C8B14FF4807074
:103060002168886007F4007018B1204600F00AFC5F
:103070000EE007F4806010B145F4005508E007F455
:10308000006010B145F4804502E0204600F0F8FBF6
:1030900007F48030C8B14FF480302168886007F4AD
:1030A000003018B1204600F0F6FB0EE007F4802057
:1030B00010B145F4004508E007F4002010B145F4D4
:1030C000803502E0204600F0E5FB06F0080038B14C
:1030D0000AF0100020B145F4007510202168C86086
:1030E00006F0040040B10AF0080028B10820216869
:1030F000C860204600F01AFA06F0020038B12068D5
:10310000C06800F0030010B1204600F011FA06F08C
:10311000400038B10BF0100020B145F4806510205C
:103120002168086106F0200040B10BF0080028B1CA
:10313000082021680861204600F06EFB06F01000B0
:1031400038B12068006900F0030010B1204600F09B
:1031500064FB06F4003040B109F0100028B11020E3
:1031600021684860204600F059FB06F4803040B1E9
:1031700009F0080028B1082021684860204600F0C6
:103180008BFB06F4004088B309F0040078B306F422
:10319000807020B108F0010008B145F0010506F487
:1031A000007020B108F0020008B145F0020506F4F5
:1031B000806020B108F0040008B145F0040506F471
:1031C0000060A0B108F0700088B108F070004028DD
:1031D00017D006DC10280BD020280CD0302819D1AD
:1031E0000CE0502810D0602814D110E01DE019E048
:1031F00045F008050FE045F010050CE045F020050E
:1032000009E045F0400506E045F0800503E045F49F
:10321000807500E000BF00BF2068806920F070006A
:10322000216888610420216848602DB1606A2843C4
:1032300060622046FFF71CFEBDE8F09F70B50446B3
:103240000CB9012070BD94F8200010B9204600F0A0
:10325000AFF82068006820F002002168086000F0E4
:103260005DFE05460DE000F059FE401B0A2808D916
:10327000606A40F400306062052084F8200001207C
:10328000E0E72068406800F002000028EBD12068E9
:10329000006840F001002168086000F03FFE05462C
:1032A0000DE000F03BFE401B0A2808D9606A40F49C
:1032B00000306062052084F820000120C2E7206809
:1032C000406800F001000028EBD0207E012806D1E4
:1032D0002068006840F080002168086005E02068F0
:1032E000006820F0800021680860607E012806D117
:1032F0002068006840F040002168086005E0206810
:10330000006820F0400021680860A07E012806D1F6
:103310002068006840F020002168086005E020680F
:10332000006820F0200021680860E07E012806D1B6
:103330002068006820F010002168086005E020681F
:10334000006840F0100021680860207F012806D145
:103350002068006840F008002168086005E02068E7
:10336000006820F0080021680860607F012806D10D
:103370002068006840F004002168086005E02068CB
:10338000006820F0040021680860D4E902010843C5
:1033900021690843616908436168491E084321683F
:1033A000C86100206062012084F82000002049E705
:1033B00010B586B0044657492068884249D156481E
:1033C0000068401C544908600846006801280FD175
:1033D00000BF002000905148006840F000704F4945
:1033E00008600846006800F00070009000BF00BF51
:1033F00000BF0020009049481038006840F00800E5
:103400004649103908600846006800F0080000903E
:1034100000BF00BF03200190022002900020039013
:10342000032004900920059001A93D4800F062FCAA
:1034300000220521132000F0FBFD132000F0E8FD21
:1034400000220521142000F0F3FD142000F0E0FD1F
:103450005DE034492068884259D100BF00200090C7
:103460002E48006840F080602C49086008460068DB
:1034700000F08060009000BF00BF27480068401C3B
:10348000254908600846006801280FD100BF0020C8
:1034900000902248006840F000702049086008460B
:1034A000006800F00070009000BF00BF00BF002067
:1034B00000901A481038006840F00200174910398F
:1034C00008600846006800F00200009000BF00BFDE
:1034D0004FF44050019002200290002003900320FE
:1034E00004900920059001A90F4800F003FC002278
:1034F00005213F2000F09CFD3F2000F089FD0022C7
:103500000521402000F094FD402000F081FD06B030
:1035100010BD000000640040000000204038024060
:10352000000C0240006800400004024070470000A8
:1035300070B58AB00646AF48864277D101AB03AA80
:1035400000213046FFF795FC0546002D6FD103980A
:10355000A0F201200A2837D2DFE800F005060708AC
:103560006A8889B8373800BF00BF00BF0398401E83
:10357000C4B29DF805009DF8041040EA012004EB58
:1035800044019D4A02EB810188809DF807009DF867
:10359000061040EA012000B204EB440102EB810175
:1035A000C8809DF809009DF8081040EA012000B28B
:1035B00004EB440102EB810108819DF80A0004EB51
:1035C000440102EB8101887280E000BF0398A0F201
:1035D0000920C4B29DF805009DF8041040EA0120BE
:1035E00004EB4401854A02EB810188809DF80700C5
:1035F0009DF8061040EA012000B204EB440102EB02
:103600008101C8809DF809009DF8081040EA01205A
:1036100000B204EB440102EB810108819DF80A002D
:1036200004EB440102EB810188724FE055E04EE06B
:103630009DF805009DF8041040EA0120704988803B
:103640009DF807009DF8061040EA012000B26C4981
:10365000C8809DF809009DF8081040EA012000B2DA
:10366000674908819DF80A00887200BF00BF03986F
:10367000801EC4B29DF805009DF8041040EA0120A8
:1036800004EB44015C4A02EB810188809DF807004D
:103690009DF8061040EA012000B204EB440102EB61
:1036A0008101C8809DF809009DF8081040EA0120BA
:1036B00000B204EB440102EB810108819DF80A008D
:1036C00004EB440102EB8101887200BF90E04D4899
:1036D0000068401C4B4908608AE04B4886427DD117
:1036E00001AB03AA00213046FFF7C3FB0546002DBE
:1036F00079D146480088401C444908800398012835
:1037000004D0022827D003286CD148E09DF805009A
:103710009DF8041040EA012000B23D4908809DF860
:1037200007009DF8061040EA012000B238494880A1
:103730009DF809009DF8081040EA012000B23449C4
:1037400088809DF80B009DF80A1040EA012000B225
:103750002F49C88046E09DF805009DF8041040EA16
:10376000012000B22A4948819DF807009DF8061003
:1037700040EA012001B2264881819DF809009DF8A8
:10378000081040EA012001B22148C1819DF80B00D8
:103790009DF80A1040EA01201D49488222E09DF868
:1037A000040000F003001A4908729DF80400C0F3F9
:1037B000C10048729DF80400C0F3801114480174E0
:1037C0009DF80400C109124841749DF806009DF857
:1037D000051040EA012000B20D4901E008E002E0D6
:1037E000888200BF04E00B480068401C094908605B
:1037F0000AB070BD7C040020A8070020D807002074
:10380000080800201C000020A4040020180000204C
:10381000260800202000002070477047704770B5D0
:10382000044694F82000012822D1022084F82000C8
:103830002068006820F001002168086000F06EFB3D
:1038400005460DE000F06AFB401B0A2808D9606AB3
:1038500040F400306062052084F82000012070BD33
:103860002068406800F001000028EBD16062F6E7B4
:10387000606A40F4002060620120F0E77047704702
:103880007047000002490968491C014A11607047ED
:1038900014000020704770477047014691F83500CA
:1038A000022803D08020486501207047052081F858
:1038B00035000868006820F001000A6810600020E8
:1038C000F3E70000F8B50446002000908C4800683B
:1038D0004FF41651B0FBF1F7A56D2E6894F85C100B
:1038E00008208840304098B12068006800F004004B
:1038F00070B12068006820F004002168086094F826
:103900005C1008208840A860606D40F00100606590
:1039100094F85C1001208840304068B1206840690C
:1039200000F0800040B194F85C1001208840A8604D
:10393000606D40F00200606594F85C1004208840DF
:10394000304068B12068006800F0020040B194F88F
:103950005C1004208840A860606D40F00400606541
:1039600094F85C1010208840304078B320680068DC
:1039700000F0080050B394F85C1010208840A86054
:103980002068006800F4802080B12068006800F49E
:10399000002028B9206CC8B12046216C884715E06A
:1039A000A06C98B12046A16C88470FE020680068A1
:1039B00000F4807028B92068006820F008002168B1
:1039C0000860206C10B12046216C884794F85C1088
:1039D000202088403040002865D02068006800F032
:1039E000100000285FD094F85C1020208840A86068
:1039F00094F83500052828D12068006820F01600CA
:103A0000216808602068406920F0800021684861D2
:103A1000206C08B9A06C28B12068006820F008006C
:103A20002168086094F85C103F208840A86000BFBF
:103A3000002084F8340000BF012084F83500206D98
:103A400010B12046216D8847F8BD2068006800F459
:103A5000802080B12068006800F4002028B9606CE4
:103A600010B12046616C88471DE0E06BD8B120465C
:103A7000E16B884717E02068006800F4807068B93F
:103A80002068006820F010002168086000BF002056
:103A900084F8340000BF012084F83500E06B10B1D9
:103AA0002046E16B8847606D38B3606D00F001001F
:103AB000F0B1052084F835002068006820F001008E
:103AC0002168086000BF0098401C0090B84200D9EF
:103AD00005E02068006800F001000028F3D100BF75
:103AE00000BF002084F8340000BF012084F83500B6
:103AF000E06C10B12046E16C884700BFA4E70000ED
:103B0000100000202DE9F0410446002500F006FADF
:103B1000074614B90120BDE8F081606A00B100BF1A
:103B200000BF002084F8340000BF022084F8350074
:103B30002068006820F00100216808600AE000F0B9
:103B4000EDF9C01B052805D920206065032084F805
:103B50003500E0E72068006800F001000028EED1A1
:103B60002068056821480540D4E901010843E1685F
:103B700008432169084361690843A1690843E16971
:103B80000843216A08430543606A042803D1D4E945
:103B90000B0108430543206805602068456925F04E
:103BA0000705606A0543606A04280DD1A06A0543D1
:103BB000E06A48B12046FDF7C3F928B140206065AE
:103BC000012084F83500A6E7206845612046FDF70E
:103BD0009DF9064694F85C103F208840B0600020B4
:103BE0006065012084F83500002094E73F8010F0E4
:103BF0002DE9F04104460D4616461F464FF00008D9
:103C000000BF94F83400012802D10220BDE8F08101
:103C1000012084F8340000BF94F83500012811D148
:103C2000022084F83500002060653B463246294674
:103C30002046FDF7DAF92068006840F001002168AD
:103C4000086006E000BF002084F8340000BF4FF099
:103C500002084046DAE72DE9F04704460D461646CD
:103C60001F464FF00008D4F8589000BF94F8340075
:103C7000012802D10220BDE8F087012084F8340039
:103C800000BF94F8350001282BD1022084F83500BC
:103C9000002060653B46324629462046FDF7A5F9DF
:103CA00094F85C103F208840C9F80800206800683C
:103CB00040F01600216808602068406940F08000EC
:103CC00021684861206C28B12068006840F0080035
:103CD000216808602068006840F0010021680860E1
:103CE00006E000BF002084F8340000BF4FF0020857
:103CF0004046C0E7F8B502460B46002500240020E8
:103D00000021E6E0012606FA01F51E6806EA050430
:103D1000AC4273D15E68022E02D05E68122E13D1BF
:103D2000CF0802F1200656F827004E07F70E0F269F
:103D3000BE40B0434F07FF0E1E69BE403043CF0860
:103D400002F1200646F8270010684F000326BE4007
:103D5000B0431E7906F003064F00BE4030431060AA
:103D60005E68012E08D05E68022E05D05E68112EB6
:103D700002D05E68122E13D190684F000326BE4019
:103D8000B0434F00DE68BE4030439060506801266B
:103D90008E40B0431E79C6F300168E40304350600B
:103DA000D0684F000326BE40B0434F009E68BE401F
:103DB0003043D0605E6806F08056B6F1805FA8D1CF
:103DC00000BF00260096454E366846F48046434FB5
:103DD0003E603E46366806F48046009600BF00BF4F
:103DE0003F4E8F0856F827008E07370F0F26BE402C
:103DF000B0433C4EB24202D100262EE068E03A4E7B
:103E0000B24201D1012628E0384EB24201D1022649
:103E100023E0374EB24201D103261EE0354EB242B6
:103E200001D1042619E0344EB24201D1052614E036
:103E3000324EB24201D106260FE0314EB24201D1DC
:103E400007260AE02F4EB24201D1082605E02E4E89
:103E5000B24201D1092600E00A268F073F0FBE407B
:103E600030431F4E8F0846F82700284E3068A04385
:103E70005E6806F48036B6F5803F00D12043234EBD
:103E80003060361D3068A0435E6806F40036B6F533
:103E9000003F00D120431D4E361D3060361D306876
:103EA000A0435E6806F48016B6F5801F00D120435B
:103EB000164E08363060361D3068A0435E6806F442
:103EC0000016B6F5001F00D12043104E0C363060AE
:103ED000491C1029FFF416AFF8BD00004438024019
:103EE000083801400000024000040240000802407F
:103EF000000C024000100240001402400018024072
:103F0000001C02400020024000240240003C01400E
:103F10000AB1816101E00B048361704701480068C8
:103F20007047000004000020034800680349097836
:103F30000844014908607047040000200C0000207C
:103F400010B50D48006840F400700B490860084641
:103F5000006840F4806008600846006840F48070A3
:103F60000860032000F0A2F8002000F007F800F03D
:103F70002BF8002010BD0000003C024070B5044644
:103F80000E4800784FF47A71B1FBF0F00C490968E3
:103F9000B1FBF0F5284600F0FFFB08B1012070BD31
:103FA000102C07D200222146501E00F041F805488F
:103FB000046001E00120F2E70020F0E70C0000209F
:103FC000100000200800002008B500BF002000906D
:103FD0000E48006840F480400C49086008460068BC
:103FE00000F48040009000BF00BF00BF00200090A0
:103FF000081F006840F08050091F086008460068EC
:1040000000F08050009000BF00BF08BD443802405F
:1040100001460846002809DB00F01F0301229A40F0
:1040200043099B0003F1E023C3F8002100BF704760
:104030002DE9F05F80460D461646002703F050F943
:10404000074639462A46334601F00700C0F1070A01
:10405000BAF1040F02D94FF0040A01E0C0F1070AD7
:10406000D14600F1040ABAF1070F02D24FF0000A5C
:1040700001E0A0F1030AD4464FF0010A0AFA09FA56
:10408000AAF1010A0AEA020A0AFA0CFA4FF0010B35
:104090000BFA0CFBABF1010B0BEA030B4AEA0B0426
:1040A0002146404603F024F9BDE8F09F00BF00F030
:1040B0000702064B19684FF6FF031940044B0B43E8
:1040C00043EA0221014B196000BF70470CED00E08C
:1040D0000000FA0570B504460D460CB9012070BD0C
:1040E0005848006800F00F00A84209D255490D70E9
:1040F0000846006800F00F00A84201D00120EEE75A
:10410000207800F0020002281DD1207800F0040081
:10411000042805D14C48006840F4E0504A49086042
:10412000207800F00800082805D14748006840F4CE
:104130006040454908604448006820F0F000A168EC
:10414000084341490860207800F00100A8B3606886
:10415000012807D13C4808380068C0F34040B8B98E
:104160000120BCE76068022802D06068032807D1FC
:10417000354808380068C0F3406048B90120AEE710
:10418000314808380068C0F3400008B90120A6E7AC
:104190002D48006820F00300616808432A49086040
:1041A000FFF7BCFE064609E0FFF7B8FE801B41F2B0
:1041B0008831884202D9032091E707E0224800684D
:1041C00000F00C006168B0EB810FEDD11D48006874
:1041D00000F00F00A84209D91A490D70084600687E
:1041E00000F00F00A84201D0012078E7207800F00D
:1041F0000400042807D11448006820F4E050E16866
:10420000084311490860207800F00800082808D108
:104210000D48006820F46040216940EAC1000A4965
:10422000086000F03DF808490968C1F30311074A26
:10423000515CC840064908600020FFF79FFE00203F
:104240004DE70000003C024008380240687B00084F
:104250001000002001480068704700001000002096
:1042600000B5FFF7F7FF04490968C1F38221034A4B
:10427000515CC84000BD000008380240787B00084F
:1042800000B5FFF7E7FF04490968C1F34231034A6B
:10429000515CC84000BD000008380240787B00082F
:1042A0002DE9F047002400250026A1462548006896
:1042B00000F00C0020B1042805D008283AD105E010
:1042C000DFF8849039E0DFF8849036E01D48001F65
:1042D000006800F03F041B48001F006800F48000E5
:1042E00078B11A481749091F0968C1F38811A0FB62
:1042F00001700146224600233846FCF7B5FB05460F
:104300000EE011480F49091F0968C1F38811A0FB8D
:1043100001700146224600233846FCF7A5FB0546FE
:104320000848001F0068C0F30140401C4600B5FB70
:10433000F6F902E0DFF8109000BF00BF4846BDE884
:10434000F0870000083802400024F400001BB7008A
:10435000F8B504460CB90120F8BD207800F0010042
:10436000002874D0F948006800F00C0004280DD033
:10437000F648006800F00C00082813D1F348001F2D
:10438000006800F48000B0F5800F0BD1EF480838CA
:104390000068C0F34040002859D06068002856D11A
:1043A0000120D9E700BF6068B0F5803F08D1E74839
:1043B0000838006840F48030E449083908601EE09D
:1043C0006068B0F5A02F0DD1E0480838006840F4CF
:1043D0008020DE49083908600846006840F48030D3
:1043E00008600CE0D9480838006820F48030D749CC
:1043F000083908600846006820F48020086000BF83
:10440000606890B1FFF78AFD054606E0FFF786FD7C
:10441000401B642801D903209EE7CC480838006877
:10442000C0F340400028F1D011E0FFF777FD0546CA
:1044300006E0FFF773FD401B642801D903208BE7DA
:10444000C24808380068C0F340400028F1D1207805
:1044500000F0020002285FD1BC48006800F00C00A8
:1044600058B1BA48006800F00C0008281CD1B748C1
:10447000001F006800F48000B0B9B4480838006834
:10448000C0F3400020B1E068012801D0012063E7BB
:10449000AE480838006820F0F800216940EAC10001
:1044A000AA490839086037E0E06800B30120A8494C
:1044B0000860FFF733FD054606E0FFF72FFD401BC0
:1044C000022801D9032047E7A04808380068C0F354
:1044D00040000028F1D09D480838006820F0F8001E
:1044E000216940EAC10099490839086014E00020B8
:1044F00097490860FFF712FD054606E0FFF70EFD3D
:10450000401B022801D9032026E79048083800689C
:10451000C0F340000028F1D1207800F008000828FE
:104520002CD16069A8B101208A490860FFF7F6FC28
:10453000054606E0FFF7F2FC401B022801D90320E4
:104540000AE782486C300068C0F340000028F1D0D0
:1045500014E000207F490860FFF7E0FC054606E014
:10456000FFF7DCFC401B022801D90320F4E6774862
:104570006C300068C0F340000028F1D1207800F0D2
:104580000400042870D1002670483830006800F01C
:10459000805090B900BF002000906C48383000680F
:1045A00040F080506949383108600846006800F0E2
:1045B0008050009000BF00BF01266748006800F4EB
:1045C0008070B0B96448006840F480706249086047
:1045D000FFF7A4FC054606E0FFF7A0FC401B0228FD
:1045E00001D90320B8E65C48006800F48070002818
:1045F000F2D000BFA068012808D154486830006894
:1046000040F001005149683108601DE0A0680528AC
:104610000DD14E486830006840F004004B496831C5
:1046200008600846006840F0010008600CE0474858
:104630006830006820F0010044496831086008468D
:10464000006820F00400086000BFA068A8B1FFF770
:1046500065FC054609E0FFF761FC401B41F288312B
:10466000884202D9032077E626E03848683000689F
:10467000C0F340000028EED013E0FFF74FFC0546E2
:1046800008E0FFF74BFC401B41F28831884201D91A
:10469000032061E62D4868300068C0F34000002820
:1046A000EFD1012E07D129483830006820F0805022
:1046B00026493831086000BFA069B8B323480068B4
:1046C00000F00C0008285ED0A069022846D1002026
:1046D0001F490866FFF722FC054606E0FFF71EFCAF
:1046E000401B022801D9032036E618480838006824
:1046F000C0F340600028F1D1D4E907010843616AA2
:1047000040EA81110122A06AC2EB500041EA004157
:104710002C20005D41EA00600C49091F086001205F
:104720000B490866FFF7FAFB054607E02DE0FFF7A7
:10473000F5FB401B022801D903200DE60348083889
:104740000068C0F340600028F1D01EE00838024045
:1047500000004742800E47420070004000200C4994
:104760000866FFF7DBFB054606E0FFF7D7FB401BBB
:10477000022801D90320EFE506480068C0F3406035
:104780000028F2D101E00120E6E50020E4E5000088
:10479000000047420038024070B504462546681EB6
:1047A000B0F1807F01D301200FE0681E4FF0E021BF
:1047B00048610F214FF0FF3002F09AFD00204FF0CA
:1047C000E021886107200861002070BD10B5034614
:1047D000002200BF93F83C00012801D1022010BD47
:1047E000012083F83C0000BF22F0FF00CC6840EAC3
:1047F000040222F440708C6840EA040222F48060D3
:104800004C6840EA040222F400600C6840EA0402AA
:1048100022F480500C6940EA040222F400504C69F2
:1048200040EA040222F48040CC6940EA040218689D
:10483000426400BF002083F83C0000BF00BFCEE709
:1048400010B5024600BF92F83C00012801D10220B9
:1048500010BD012082F83C0000BF022082F83D001C
:10486000106843681068846823F070030868034385
:1048700024F0800448680443106843601068846032
:10488000012082F83D0000BF002082F83C0000BFFC
:1048900000BFDDE710B504460CB9012010BD94F847
:1048A0003D0028B9002084F83C00204600F00CF8B8
:1048B000022084F83D00211D206801F0BDFF012089
:1048C00084F83D000020E9E738B50446284920680F
:1048D00088420FD100BF002000902648006840F0B9
:1048E0000100244908600846006800F001000090BB
:1048F00000BF00BF20492068884219D100BF0020B6
:1049000000901C48001F006840F002001949091F70
:1049100008600846006800F00200009000BF00BF79
:10492000002201211D20FFF783FB1D20FFF770FBF4
:1049300012492068884219D100BF002000900D481C
:10494000001F006840F004000A49091F086008467B
:10495000006800F00400009000BF00BF0022114674
:104960001E20FFF765FB1E20FFF752FB38BD00003D
:1049700000000140443802400004004000080040AC
:104980002DE9F04104460D4600BF94F83C00012893
:1049900002D10220BDE8F081012084F83C0000BF74
:1049A000022084F83D002068866826F0770626F409
:1049B0007F46206886602868502833D00CDC202889
:1049C00050D004DC00284BD0102851D149E03028C9
:1049D00049D040284CD139E060282DD0702807D02C
:1049E000B0F5805F03D0B0F5005F41D10DE040E04D
:1049F000D5E902136A68206801F09BFF2068866889
:104A000046F077062068866033E0D5E902136A68CD
:104A1000206801F08EFF2068806840F480402168A3
:104A2000886026E0EA686968206802F073F850211F
:104A3000206801F089FF1CE0EA686968206802F0DC
:104A40007CF86021206801F07FFF12E0EA68696865
:104A5000206802F05FF84021206801F075FF08E04F
:104A600000BF00BF00BF2968206801F06DFF00E0B3
:104A700000BF00BF012084F83D0000BF002084F883
:104A80003C0000BF00BF85E710B586B00446142186
:104A900001A8FCF721F820492068884239D100BFDD
:104AA000002000901D48006840F001001B4908608C
:104AB0000846006800F00100009000BF00BF00BF82
:104AC000002000900846006840F01000086008468A
:104AD000006800F01000009000BF00BF8815019032
:104AE000022002900020039004900120059001A96B
:104AF0000B48FFF7FFF84FF480400190022002902E
:104B00000020039004900120059001A90548FFF7BB
:104B1000F1F806B010BD000000000140303802403E
:104B2000000002400010024070B504460D461646D3
:104B300000BF94F83C00012801D1022070BD012083
:104B400084F83C0000BF022084F83D0036B1042EFA
:104B50001BD0082E31D00C2E5ED145E029462068AE
:104B600001F0FCFE2068806940F00800216888613F
:104B70002068806920F004002168886120688069CD
:104B8000296908432168886147E02946206801F0C7
:104B90001DFF2068806940F40060216888612068FA
:104BA000806920F4806021688861206880692969B3
:104BB00040EA0120216888612FE02946206801F041
:104BC00043FF2068C06940F008002168C861206880
:104BD000C06920F004002168C8612068C0692969A3
:104BE00008432168C86118E02946206801F068FF81
:104BF0002068C06940F400602168C8612068C0690D
:104C000020F480602168C8612068C069296940EA91
:104C100001202168C86100E000BF00BF012084F8C6
:104C20003D0000BF002084F83C0000BF00BF85E7C6
:104C300010B504460CB9012010BD94F83D0028B908
:104C4000002084F83C00204600F00CF8022084F894
:104C50003D00211D206801F0EFFD012084F83D009A
:104C60000020E9E710B586B004461B492068884259
:104C700030D100BF002000901848006840F00200CA
:104C8000164908600846006800F00200009000BF66
:104C900000BF00BF0020009010481438006840F4A6
:104CA00080700E49143908600846006800F480706E
:104CB000009000BF00BF2020019002200290012040
:104CC0000390022004900320059001A90448FFF7F7
:104CD00011F800BF06B010BD000401404438024086
:104CE0000020024070B504460E460122314620687D
:104CF00001F00EFE0F492068884203D00E4920685B
:104D0000884201D1012000E0002028B12068406CD9
:104D100040F40040216848642068806800F007057E
:104D2000062D05D02068006840F001002168086069
:104D3000002070BD000001400004014070470000E9
:104D40002DE9F0470446206805682068C668206899
:104D500047694FF00008C14605F00F08B8F1000F91
:104D60000AD105F0200038B106F0200020B120461D
:104D700002F05EF8BDE8F087B8F1000F6ED007F0E2
:104D8000010018B906F49070002867D005F0010002
:104D900030B106F4807018B1E06B40F00100E063C0
:104DA00005F0040030B107F0010018B1E06B40F0ED
:104DB0000200E06305F0020030B107F0010018B115
:104DC000E06B40F00400E06305F0080030B107F04C
:104DD000010018B1E06B40F00800E063E06B70B3D5
:104DE00005F0200028B106F0200010B1204602F0A6
:104DF0001FF820684069C0F38019E06B00F00800DC
:104E000010B9B9F1000F23D0204601F0E7FF206868
:104E1000406900F04000402816D12068406920F029
:104E2000400021684861606B50B11748616B0865AC
:104E3000606BFEF732FD10B1606B016D88470CE0CE
:104E40002046FFF77BFF08E02046FFF777FF04E0EE
:104E50002046FFF773FF0020E0638BE705F080003A
:104E600030B106F0800018B1204602F0E9F981E780
:104E700005F0400030B106F0400018B1204601F0C6
:104E8000BDFF77E700BF75E7256D000810B5044644
:104E90000CB9012010BDA06900B100E000BF94F87A
:104EA000390028B9002084F83800204600F028F89E
:104EB000242084F839002068C06820F4005021685C
:104EC000C860204602F008F82068006920F490408D
:104ED000216808612068406920F02A002168486143
:104EE0002068C06840F400502168C8600020E0637A
:104EF000202084F8390084F83A000020CAE7000036
:104F000010B586B00446142101A8FBF7E5FDA149C0
:104F10002068884259D100BF002000909E48006858
:104F200040F010009C4908600846006800F010003E
:104F3000009000BF00BF00BF0020009096481438CA
:104F4000006840F00200944914390860084600687F
:104F500000F00200009000BF00BFC02001900220BE
:104F6000029001200390032004900720059001A9DE
:104F70008A48FEF7BFFE8A488A4908604FF0006001
:104F80004860002187488160C1604FF48061016101
:104F90000021416181614FF48071C1614902016268
:104FA00000214162FEF7AEFD08B1FCF735F800BF05
:104FB0007C486063846300BF002202212520FFF744
:104FC00037F82520FFF724F8E1E077492068884288
:104FD0007ED100BF002000906F48001F006840F4A1
:104FE00000306D49091F08600846006800F4003071
:104FF000009000BF00BF00BF00200090664814383A
:10500000006840F0080064491439086008460068E8
:1050100000F00800009000BF00BF60200190022057
:10502000029001200390032004900720059001A91D
:105030005E48FEF75FFE5E485E4908604FF0006024
:10504000486000215B488160C1604FF4806101616C
:105050000021416181614FF48071C16109020162E7
:1050600000214162FEF74EFD08B1FBF7D5FF00BFFE
:1050700050486063846300BF4D4818304E49086053
:105080004FF00060486040214B4881600021C160C2
:105090004FF480610161002141618161C1614FF480
:1050A0008031016200214162FEF72CFD08B1FBF75F
:1050B000B3FF00BF40482063846300BF0022114655
:1050C0002620FEF7B5FF2620FEF7A2FF5FE0FFE7F0
:1050D0003A49206888425AD100BF002000902E48EB
:1050E000006840F020002C4908600846006800F085
:1050F0002000009000BF00BF00BF002000902648A5
:105100001438006840F0400023491439086008460C
:10511000006800F04000009000BF00BF4FF48440E2
:1051200001900220029001200390032004900820A7
:10513000059001A92248FEF7DDFD194818382149DC
:1051400008608005486000211E488160C1604FF4FE
:10515000806101610021416181614FF48071C16111
:105160004FF44031016200214162FEF7CBFC08B1EF
:10517000FBF752FF00BF13486063846300BF002247
:1051800002214720FEF754FF4720FEF741FF06B0FB
:1051900010BD0000001001404438024000040240ED
:1051A000406402408806002000440040000C024099
:1051B00088600240E80600204807002000140140F3
:1051C00000180240A805002077B581B004461546B6
:1051D00094F83A00202850D1029800B115B9012066
:1051E00004B070BD00BF94F83800012801D102203E
:1051F000F6E7012084F8380000BF0298A062A58578
:105200000020E063222084F83A001D48616BC863E7
:105210001C48616B08641C48616BC8640020616BAA
:10522000086502AE32682368191D2B46606BFEF7D5
:1052300012FD00BF002000902068006800902068E8
:105240004068009000BF00BF00BF002084F8380015
:1052500000BF2068C06840F480702168C860206882
:10526000406940F00100216848612068406940F0D1
:105270004000216848610020B2E70220B0E700004A
:10528000896D0008CF6D0008396D000870477047C0
:10529000704700BFFEE700000848006807498968BA
:1052A000884209D105484168C068814204D1044858
:1052B000006808B1012070470020FCE7C80D0020FD
:1052C00018030020642070479FED061A80ED001A35
:1052D0009FED041A80ED051A80ED070AC0ED080A5B
:1052E0007047000000000000F0EE400A90ED000A58
:1052F00080ED010A90ED050A90ED071A30EE010AE3
:1053000080ED030A90ED030A90ED081A30EE010AD1
:1053100090ED031AC1EE001AC0ED061A90ED010AD5
:1053200090ED061AD0ED011A70EEE11A01EE210A95
:1053300080ED020A90ED060AB7EE001A31EE400A3F
:1053400090ED031A20EE010A80ED040A90ED040AA4
:1053500080ED050A90ED020A80ED000A90ED020A48
:105360007047000010B50F480F49086007204860DB
:1053700000210D488160C1604FF400310161C90016
:10538000416100210176012141768176C1760021BB
:10539000017701214177FDF751FF08B1FBF73CFE92
:1053A00010BD0000006400407C04002010B50F48D0
:1053B0000F4908600720486000210D488160C160E6
:1053C0004FF400310161C9004161002101760121E2
:1053D00041768176C1760021017701214177FDF781
:1053E0002DFF08B1FBF718FE10BD0000006800405B
:1053F000A404002008B500BF002000901A480068EF
:1054000040F48000184908600846006800F48000F5
:10541000009000BF00BF00BF002000900846006859
:1054200040F4001008600846006800F40010009086
:1054300000BF00BF002211461020FEF7F9FD10202A
:10544000FEF7E6FD002211461120FEF7F1FD1120C6
:10545000FEF7DEFD002211463A20FEF7E9FD3A2074
:10546000FEF7D6FD08BD00003038024000B587B019
:10547000142102A8FBF730FB00BF00200190604818
:10548000006840F040005E4908600846006800F08F
:105490004000019000BF00BF00BF002001900846FF
:1054A000006840F0020008600846006800F0020052
:1054B000019000BF00BF00BF0020019008460068B7
:1054C00040F0080008600846006800F008000190FD
:1054D00000BF00BF00BF002001900846006840F0F8
:1054E000800008600846006800F08000019000BF5E
:1054F00000BF00BF002001900846006840F0010096
:1055000008600846006800F00100019000BF00BF7D
:1055100000BF002001900846006840F010000860BD
:105520000846006800F01000019000BF00BF00BFF7
:10553000002001900846006840F0200008600846FE
:10554000006800F02000019000BF00BF00224FF46F
:1055500000512C48FEF7DCFC00224FF480612A4801
:10556000FEF7D6FC00223C212848FEF7D1FC0022A1
:105570004FF400612648FEF7CBFC00224FF4804137
:105580002148FEF7C5FC4FF4005002900120039023
:1055900000200490059002A91A48FEF7ABFB4FF4D7
:1055A000806002900120039000200490059002A9E1
:1055B0001548FEF79FFB3C2002900120039000203D
:1055C0000490059002A91148FEF794FB4FF4006087
:1055D00002900120039000200490059002A90C483D
:1055E000FEF788FB4FF480400290012003900020DA
:1055F0000490059002A90448FEF77CFB07B000BDAB
:10560000303802400018024000140240001C0240E2
:105610000010024000B595B0002011901290139038
:1056200014900F9010901C2108A8FBF755FA202128
:105630006846FBF751FA344834490860A7204860AF
:1056400000213248816044F61F61C1600021016180
:1056500041618161FFF71EF908B1FBF7DDFC4FF4F2
:105660008050119011A92948FFF78AF908B1FBF77A
:10567000D3FC2648FFF7DCFA08B1FBF7CDFC00208D
:105680000F9010900FA92148FFF7DAF808B1FBF747
:10569000C3FC602008904FF47A70099000200A90B3
:1056A0000B900C900D900E90002208A91748FFF760
:1056B0003BFA08B1FBF7B0FC042208A91348FFF736
:1056C00033FA08B1FBF7A8FC0C2208A90F48FFF732
:1056D0002BFA08B1FBF7A0FC00200090019002908B
:1056E000039004904FF40050059000200790694605
:1056F0000648FFF76BF808B1FBF78EFC0348FFF78D
:10570000C3F915B000BD000000000140CC0400202A
:1057100010B508480849086040F257204860002149
:105720000548816040F2BB21C16000210161FFF7A3
:10573000B1F810BD000400403C08002010B50B4833
:105740000B4908600B484860002109488160C1602E
:105750004FF4806101610421416100218161C161D7
:10576000FFF794FB08B1FBF757FC10BD0010014098
:1057700008060020A086010010B50B480B49086000
:105780004FF4E1304860002108488160C160016148
:105790000C21416100218161C161FFF777FB08B1F4
:1057A000FBF73AFC10BD0000004400404806002012
:1057B00010B50B480B4908604FF4E13048600021F8
:1057C00008488160C16001610C2141610021816153
:1057D000C161FFF75BFB08B1FBF71EFC10BD0000C9
:1057E000001401406805002010B500F019FF40B911
:1057F00000F0E0F858B114480078C043124908702E
:1058000005E000F00DFF012801D100F027F80F4856
:10581000008888B90E48008870B90E480078401C8E
:105820000C49087008460078012808DD00200A4964
:1058300008700849087002E0012007490870024812
:10584000007800F05DF810BDD5030020DA030020D9
:10585000D8030020DE030020D60300202248408A1F
:10586000C0F3002018B101202049087002E0002098
:105870001E4908701D4800781C494978884203D0A9
:105880001B4800881B4908801848007840B9174811
:105890004078012804D118480078401C1649087047
:1058A0001548007850B11348008812494988401AB9
:1058B000B0F5FA7F02DD00200F4908700E4800782D
:1058C000012807DD0D480078C0430C49087000200E
:1058D000094908700748008806494880034800784D
:1058E000024948707047000026080020E0030020AD
:1058F000A8030020E2030020DF030020D5030020DE
:10590000014619B15A22204B1A8002E000221E4B98
:105910001A801D4A12881D4B1B88D21A10B200280B
:1059200014DD1B4AB2F90020904208DD174A1288A4
:10593000174B1B881A4412B2144B1A801DE0134AED
:105940001288024412B2114B1A8016E0002814DAB1
:105950000F4AB2F900205242904208DA0B4A1288EC
:105960000B4B1B88D21A12B2084B1A8005E0074A6B
:105970001288024412B2054B1A80044AB2F9002080
:10598000044B9A6370470000D8030020DA0300201C
:10599000DC03002000000140002003490880034987
:1059A0000880034908707047D8030020DA030020FC
:1059B000D50300201348407A032817D11148007AF4
:1059C00001280FD110480078012803D102200E4988
:1059D00008700EE00C48007802280AD100200A491D
:1059E000087006E001200849087002E0002006491E
:1059F000087005480078022801D101207047002076
:105A0000FCE7000026080020D403002000BFFEE7CA
:105A100070478363426380ED000AC0ED010A80EDA8
:105A2000021A704770470000B0EE402A9FED180A36
:105A3000F0EE401A32EE600AF0EE401AF5EEC01AAF
:105A4000F1EE10FA0EDDF4EEC11AF1EE10FA04DDFB
:105A500030EE810AF0EE400A16E030EEA10AF0EED8
:105A6000400A11E0B1EE410AF4EEC01AF1EE10FA6C
:105A700006D2B1EE410A30EE800AF0EE400A03E0B1
:105A800030EEA10AF0EE400AB0EE600A7047000066
:105A90000000000010B588B0044640F2FF100290EC
:105AA00000200490059002200690200A8DF8000046
:105AB000E0B28DF8010001236A4602A90248FDF711
:105AC0009AF808B010BD00007C0400209FED2E0A5B
:105AD0002E4880ED000A9FED2C0A2D4880ED000A2B
